:020000040800F2
:1000000000040020450100084D0100084F010008D0
:1000100051010008530100085501000800000000CC
:100020000000000000000000000000005701000870
:1000300059010008000000005B0100085D01000894
:100040005F0100085F0100085F0100085F01000810
:100050005F0100085F0100085F0100085F01000800
:100060005F0100085F0100085F0100085F010008F0
:100070005F0100085F0100085F0100085F010008E0
:100080005F0100085F0100085F0100085F010008D0
:100090005F0100085F0100085F0100085F010008C0
:1000A0005F0100085F0100085F0100085F010008B0
:1000B0005F0100085F0100085F0100085F010008A0
:1000C0005F0100085F0100085F0100085F01000890
:1000D0005F0100085F0100085F0100085F01000880
:1000E0005F0100085F0100085F0100085F01000870
:1000F0005F0100085F0100085F0100085F01000860
:100100005F0100085F0100085F0100085F0100084F
:100110005F0100085F0100085F0100085F0100083F
:100120005F0100085F0100085F0100085F0100082F
:10013000DFF80CD000F018F800480047B9010008BB
:10014000000400200648804706480047FEE7FEE717
:10015000FEE7FEE7FEE7FEE7FEE7FEE7FEE7FEE777
:100160008D01000831010008064C074D06E0E068EB
:1001700040F0010394E8070098471034AC42F6D3EE
:10018000FFF7DAFF1402000824020008704702E0BB
:1001900008C8121F08C1002AFAD170477047002012
:1001A00001E001C1121F002AFBD1704700BF011EF0
:1001B000A0F10100FBD170471348806940F00800AE
:1001C000114988611148006820F470000F490860E7
:1001D0000846006840F4401008604FF400100B49D6
:1001E000103108600EE04FF400100849103108602B
:1001F0000748FFF7DBFF202004491031086004485E
:10020000FFF7D4FFEFE7000000100240000C0140B0
:10021000FFFF0F002402000800000020000400007F
:040220009E01000833
:0400000508000131BD
:00000001FF
